{
  "_format": "hh-sol-artifact-1",
  "contractName": "CertificateRegistry",
  "sourceName": "contracts/CertificateRegistry.sol",
  "abi": [
    {
      "inputs": [
        {
          "internalType": "address",
          "name": "registryAddr",
          "type": "address"
        }
      ],
      "stateMutability": "nonpayable",
      "type": "constructor"
    },
    {
      "anonymous": false,
      "inputs": [
        {
          "indexed": true,
          "internalType": "bytes32",
          "name": "certHash",
          "type": "bytes32"
        },
        {
          "indexed": false,
          "internalType": "string",
          "name": "ipfsCID",
          "type": "string"
        },
        {
          "indexed": true,
          "internalType": "address",
          "name": "issuer",
          "type": "address"
        },
        {
          "indexed": true,
          "internalType": "address",
          "name": "student",
          "type": "address"
        },
        {
          "indexed": false,
          "internalType": "uint256",
          "name": "timestamp",
          "type": "uint256"
        }
      ],
      "name": "CertificateIssued",
      "type": "event"
    },
    {
      "anonymous": false,
      "inputs": [
        {
          "indexed": true,
          "internalType": "bytes32",
          "name": "certHash",
          "type": "bytes32"
        },
        {
          "indexed": true,
          "internalType": "address",
          "name": "issuer",
          "type": "address"
        },
        {
          "indexed": false,
          "internalType": "uint256",
          "name": "timestamp",
          "type": "uint256"
        }
      ],
      "name": "CertificateRevoked",
      "type": "event"
    },
    {
      "anonymous": false,
      "inputs": [
        {
          "indexed": true,
          "internalType": "bytes32",
          "name": "certHash",
          "type": "bytes32"
        },
        {
          "indexed": false,
          "internalType": "bool",
          "name": "isValid",
          "type": "bool"
        }
      ],
      "name": "CertificateVerified",
      "type": "event"
    },
    {
      "inputs": [
        {
          "internalType": "bytes32",
          "name": "",
          "type": "bytes32"
        }
      ],
      "name": "certificateMetadata",
      "outputs": [
        {
          "internalType": "string",
          "name": "studentName",
          "type": "string"
        },
        {
          "internalType": "string",
          "name": "degree",
          "type": "string"
        },
        {
          "internalType": "string",
          "name": "major",
          "type": "string"
        },
        {
          "internalType": "string",
          "name": "institution",
          "type": "string"
        }
      ],
      "stateMutability": "view",
      "type": "function"
    },
    {
      "inputs": [
        {
          "internalType": "bytes32",
          "name": "",
          "type": "bytes32"
        }
      ],
      "name": "certificates",
      "outputs": [
        {
          "internalType": "bytes32",
          "name": "certHash",
          "type": "bytes32"
        },
        {
          "internalType": "string",
          "name": "ipfsCID",
          "type": "string"
        },
        {
          "internalType": "address",
          "name": "issuer",
          "type": "address"
        },
        {
          "internalType": "address",
          "name": "student",
          "type": "address"
        },
        {
          "internalType": "uint256",
          "name": "issuedAt",
          "type": "uint256"
        },
        {
          "internalType": "bool",
          "name": "isValid",
          "type": "bool"
        }
      ],
      "stateMutability": "view",
      "type": "function"
    },
    {
      "inputs": [
        {
          "internalType": "bytes32",
          "name": "certHash",
          "type": "bytes32"
        }
      ],
      "name": "getCertificateWithMetadata",
      "outputs": [
        {
          "components": [
            {
              "internalType": "bytes32",
              "name": "certHash",
              "type": "bytes32"
            },
            {
              "internalType": "string",
              "name": "ipfsCID",
              "type": "string"
            },
            {
              "internalType": "address",
              "name": "issuer",
              "type": "address"
            },
            {
              "internalType": "address",
              "name": "student",
              "type": "address"
            },
            {
              "internalType": "uint256",
              "name": "issuedAt",
              "type": "uint256"
            },
            {
              "internalType": "bool",
              "name": "isValid",
              "type": "bool"
            }
          ],
          "internalType": "struct CertificateRegistry.Certificate",
          "name": "cert",
          "type": "tuple"
        },
        {
          "components": [
            {
              "internalType": "string",
              "name": "studentName",
              "type": "string"
            },
            {
              "internalType": "string",
              "name": "degree",
              "type": "string"
            },
            {
              "internalType": "string",
              "name": "major",
              "type": "string"
            },
            {
              "internalType": "string",
              "name": "institution",
              "type": "string"
            }
          ],
          "internalType": "struct CertificateRegistry.CertificateMetadata",
          "name": "metadata",
          "type": "tuple"
        }
      ],
      "stateMutability": "view",
      "type": "function"
    },
    {
      "inputs": [
        {
          "internalType": "address",
          "name": "institution",
          "type": "address"
        }
      ],
      "name": "getIssuedCertificates",
      "outputs": [
        {
          "internalType": "bytes32[]",
          "name": "",
          "type": "bytes32[]"
        }
      ],
      "stateMutability": "view",
      "type": "function"
    },
    {
      "inputs": [
        {
          "internalType": "address",
          "name": "student",
          "type": "address"
        }
      ],
      "name": "getReceivedCertificates",
      "outputs": [
        {
          "internalType": "bytes32[]",
          "name": "",
          "type": "bytes32[]"
        }
      ],
      "stateMutability": "view",
      "type": "function"
    },
    {
      "inputs": [],
      "name": "institutionRegistry",
      "outputs": [
        {
          "internalType": "contract IInstitutionRegistry",
          "name": "",
          "type": "address"
        }
      ],
      "stateMutability": "view",
      "type": "function"
    },
    {
      "inputs": [
        {
          "internalType": "bytes32",
          "name": "certHash",
          "type": "bytes32"
        }
      ],
      "name": "isCertificateValid",
      "outputs": [
        {
          "internalType": "bool",
          "name": "",
          "type": "bool"
        }
      ],
      "stateMutability": "view",
      "type": "function"
    },
    {
      "inputs": [
        {
          "internalType": "bytes32",
          "name": "certHash",
          "type": "bytes32"
        },
        {
          "internalType": "string",
          "name": "ipfsCID",
          "type": "string"
        },
        {
          "internalType": "address",
          "name": "student",
          "type": "address"
        },
        {
          "internalType": "string",
          "name": "studentName",
          "type": "string"
        },
        {
          "internalType": "string",
          "name": "degree",
          "type": "string"
        },
        {
          "internalType": "string",
          "name": "major",
          "type": "string"
        },
        {
          "internalType": "string",
          "name": "institution",
          "type": "string"
        }
      ],
      "name": "issueCertificate",
      "outputs": [],
      "stateMutability": "nonpayable",
      "type": "function"
    },
    {
      "inputs": [
        {
          "internalType": "bytes32",
          "name": "certHash",
          "type": "bytes32"
        },
        {
          "internalType": "string",
          "name": "ipfsCID",
          "type": "string"
        }
      ],
      "name": "issueCertificate",
      "outputs": [],
      "stateMutability": "nonpayable",
      "type": "function"
    },
    {
      "inputs": [
        {
          "internalType": "address",
          "name": "",
          "type": "address"
        },
        {
          "internalType": "uint256",
          "name": "",
          "type": "uint256"
        }
      ],
      "name": "issuedCertificates",
      "outputs": [
        {
          "internalType": "bytes32",
          "name": "",
          "type": "bytes32"
        }
      ],
      "stateMutability": "view",
      "type": "function"
    },
    {
      "inputs": [
        {
          "internalType": "address",
          "name": "",
          "type": "address"
        },
        {
          "internalType": "uint256",
          "name": "",
          "type": "uint256"
        }
      ],
      "name": "receivedCertificates",
      "outputs": [
        {
          "internalType": "bytes32",
          "name": "",
          "type": "bytes32"
        }
      ],
      "stateMutability": "view",
      "type": "function"
    },
    {
      "inputs": [
        {
          "internalType": "bytes32",
          "name": "certHash",
          "type": "bytes32"
        }
      ],
      "name": "revokeCertificate",
      "outputs": [],
      "stateMutability": "nonpayable",
      "type": "function"
    },
    {
      "inputs": [
        {
          "internalType": "bytes32",
          "name": "certHash",
          "type": "bytes32"
        }
      ],
      "name": "verifyCertificate",
      "outputs": [
        {
          "components": [
            {
              "internalType": "bytes32",
              "name": "certHash",
              "type": "bytes32"
            },
            {
              "internalType": "string",
              "name": "ipfsCID",
              "type": "string"
            },
            {
              "internalType": "address",
              "name": "issuer",
              "type": "address"
            },
            {
              "internalType": "address",
              "name": "student",
              "type": "address"
            },
            {
              "internalType": "uint256",
              "name": "issuedAt",
              "type": "uint256"
            },
            {
              "internalType": "bool",
              "name": "isValid",
              "type": "bool"
            }
          ],
          "internalType": "struct CertificateRegistry.Certificate",
          "name": "",
          "type": "tuple"
        }
      ],
      "stateMutability": "view",
      "type": "function"
    }
  ],
  "bytecode": "0x608060405234801561001057600080fd5b506040516128d43803806128d4833981810160405281019061003291906100db565b806000806101000a81548173ffffffffffffffffffffffffffffffffffffffff021916908373ffffffffffffffffffffffffffffffffffffffff16021790555050610108565b600080fd5b600073ffffffffffffffffffffffffffffffffffffffff82169050919050565b60006100a88261007d565b9050919050565b6100b88161009d565b81146100c357600080fd5b50565b6000815190506100d5816100af565b92915050565b6000602082840312156100f1576100f0610078565b5b60006100ff848285016100c6565b91505092915050565b6127bd806101176000396000f3fe608060405234801561001057600080fd5b50600436106100cf5760003560e01c8063742f06881161008c578063bc0c211c11610066578063bc0c211c14610252578063c239be1e14610283578063c60eab85146102b3578063c6cbc52a146102e3576100cf565b8063742f0688146101d1578063850c176814610206578063baf75ec714610236576100cf565b806305714099146100d457806309c8c49d146101045780631b1fcb04146101375780635c93d4311461015557806360896e1e14610171578063734fe695146101a1575b600080fd5b6100ee60048036038101906100e991906118c3565b6102ff565b6040516100fb919061190b565b60405180910390f35b61011e600480360381019061011991906118c3565b61032c565b60405161012e94939291906119b6565b60405180910390f35b61013f61057c565b60405161014c9190611a96565b60405180910390f35b61016f600480360381019061016a9190611c24565b6105a0565b005b61018b60048036038101906101869190611d52565b610a87565b6040516101989190611e3d565b60405180910390f35b6101bb60048036038101906101b69190611e95565b610b1e565b6040516101c89190611ee4565b60405180910390f35b6101eb60048036038101906101e691906118c3565b610b4f565b6040516101fd96959493929190611f1d565b60405180910390f35b610220600480360381019061021b91906118c3565b610c60565b60405161022d9190612085565b60405180910390f35b610250600480360381019061024b91906120a7565b610dfa565b005b61026c600480360381019061026791906118c3565b611114565b60405161027a92919061217b565b60405180910390f35b61029d60048036038101906102989190611e95565b611524565b6040516102aa9190611ee4565b60405180910390f35b6102cd60048036038101906102c89190611d52565b611555565b6040516102da9190611e3d565b60405180910390f35b6102fd60048036038101906102f891906118c3565b6115ec565b005b60006001600083815260200190815260200160002060050160009054906101000a900460ff169050919050565b600260205280600052604060002060009150905080600001805461034f906121e1565b80601f016020809104026020016040519081016040528092919081815260200182805461037b906121e1565b80156103c85780601f1061039d576101008083540402835291602001916103c8565b820191906000526020600020905b8154815290600101906020018083116103ab57829003601f168201915b5050505050908060010180546103dd906121e1565b80601f0160208091040260200160405190810160405280929190818152602001828054610409906121e1565b80156104565780601f1061042b57610100808354040283529160200191610456565b820191906000526020600020905b81548152906001019060200180831161043957829003601f168201915b50505050509080600201805461046b906121e1565b80601f0160208091040260200160405190810160405280929190818152602001828054610497906121e1565b80156104e45780601f106104b9576101008083540402835291602001916104e4565b820191906000526020600020905b8154815290600101906020018083116104c757829003601f168201915b5050505050908060030180546104f9906121e1565b80601f0160208091040260200160405190810160405280929190818152602001828054610525906121e1565b80156105725780601f1061054757610100808354040283529160200191610572565b820191906000526020600020905b81548152906001019060200180831161055557829003601f168201915b5050505050905084565b60008054906101000a900473ffffffffffffffffffffffffffffffffffffffff1681565b60008054906101000a900473ffffffffffffffffffffffffffffffffffffffff1673ffffffffffffffffffffffffffffffffffffffff166383c0e354336040518263ffffffff1660e01b81526004016105f99190612212565b602060405180830381865afa158015610616573d6000803e3d6000fd5b505050506040513d601f19601f8201168201806040525081019061063a9190612259565b610679576040517f08c379a0000000000000000000000000000000000000000000000000000000008152600401610670906122d2565b60405180910390fd5b6000801b87036106be576040517f08c379a00000000000000000000000000000000000000000000000000000000081526004016106b59061233e565b60405180910390fd5b6000865111610702576040517f08c379a00000000000000000000000000000000000000000000000000000000081526004016106f9906123aa565b60405180910390fd5b600073ffffffffffffffffffffffffffffffffffffffff168573ffffffffffffffffffffffffffffffffffffffff1603610771576040517f08c379a000000000000000000000000000000000000000000000000000000000815260040161076890612416565b60405180910390fd5b6040518060c001604052808881526020018781526020013373ffffffffffffffffffffffffffffffffffffffff1681526020018673ffffffffffffffffffffffffffffffffffffffff16815260200142815260200160011515815250600160008981526020019081526020016000206000820151816000015560208201518160010190816107ff91906125d8565b5060408201518160020160006101000a81548173ffffffffffffffffffffffffffffffffffffffff021916908373ffffffffffffffffffffffffffffffffffffffff16021790555060608201518160030160006101000a81548173ffffffffffffffffffffffffffffffffffffffff021916908373ffffffffffffffffffffffffffffffffffffffff1602179055506080820151816004015560a08201518160050160006101000a81548160ff02191690831515021790555090505060405180608001604052808581526020018481526020018381526020018281525060026000898152602001908152602001600020600082015181600001908161090491906125d8565b50602082015181600101908161091a91906125d8565b50604082015181600201908161093091906125d8565b50606082015181600301908161094691906125d8565b50905050600360003373ffffffffffffffffffffffffffffffffffffffff1673ffffffffffffffffffffffffffffffffffffffff168152602001908152602001600020879080600181540180825580915050600190039060005260206000200160009091909190915055600460008673ffffffffffffffffffffffffffffffffffffffff1673ffffffffffffffffffffffffffffffffffffffff1681526020019081526020016000208790806001815401808255809150506001900390600052602060002001600090919091909150558473ffffffffffffffffffffffffffffffffffffffff163373ffffffffffffffffffffffffffffffffffffffff16887f1dc5a1dce721bde204cea3cf00adbc9fcd925fa684b7397bbc7efe8f57cc616c8942604051610a769291906126aa565b60405180910390a450505050505050565b6060600460008373ffffffffffffffffffffffffffffffffffffffff1673ffffffffffffffffffffffffffffffffffffffff168152602001908152602001600020805480602002602001604051908101604052809291908181526020018280548015610b1257602002820191906000526020600020905b815481526020019060010190808311610afe575b50505050509050919050565b60046020528160005260406000208181548110610b3a57600080fd5b90600052602060002001600091509150505481565b6001602052806000526040600020600091509050806000015490806001018054610b78906121e1565b80601f0160208091040260200160405190810160405280929190818152602001828054610ba4906121e1565b8015610bf15780601f10610bc657610100808354040283529160200191610bf1565b820191906000526020600020905b815481529060010190602001808311610bd457829003601f168201915b5050505050908060020160009054906101000a900473ffffffffffffffffffffffffffffffffffffffff16908060030160009054906101000a900473ffffffffffffffffffffffffffffffffffffffff16908060040154908060050160009054906101000a900460ff16905086565b610c686117ea565b600160008381526020019081526020016000206040518060c001604052908160008201548152602001600182018054610ca0906121e1565b80601f0160208091040260200160405190810160405280929190818152602001828054610ccc906121e1565b8015610d195780601f10610cee57610100808354040283529160200191610d19565b820191906000526020600020905b815481529060010190602001808311610cfc57829003601f168201915b505050505081526020016002820160009054906101000a900473ffffffffffffffffffffffffffffffffffffffff1673ffffffffffffffffffffffffffffffffffffffff1673ffffffffffffffffffffffffffffffffffffffff1681526020016003820160009054906101000a900473ffffffffffffffffffffffffffffffffffffffff1673ffffffffffffffffffffffffffffffffffffffff1673ffffffffffffffffffffffffffffffffffffffff168152602001600482015481526020016005820160009054906101000a900460ff1615151515815250509050919050565b60008054906101000a900473ffffffffffffffffffffffffffffffffffffffff1673ffffffffffffffffffffffffffffffffffffffff166383c0e354336040518263ffffffff1660e01b8152600401610e539190612212565b602060405180830381865afa158015610e70573d6000803e3d6000fd5b505050506040513d601f19601f82011682018060405250810190610e949190612259565b610ed3576040517f08c379a0000000000000000000000000000000000000000000000000000000008152600401610eca906122d2565b60405180910390fd5b6000801b8203610f18576040517f08c379a0000000000000000000000000000000000000000000000000000000008152600401610f0f9061233e565b60405180910390fd5b6000815111610f5c576040517f08c379a0000000000000000000000000000000000000000000000000000000008152600401610f53906123aa565b60405180910390fd5b6040518060c001604052808381526020018281526020013373ffffffffffffffffffffffffffffffffffffffff168152602001600073ffffffffffffffffffffffffffffffffffffffff1681526020014281526020016001151581525060016000848152602001908152602001600020600082015181600001556020820151816001019081610feb91906125d8565b5060408201518160020160006101000a81548173ffffffffffffffffffffffffffffffffffffffff021916908373ffffffffffffffffffffffffffffffffffffffff16021790555060608201518160030160006101000a81548173ffffffffffffffffffffffffffffffffffffffff021916908373ffffffffffffffffffffffffffffffffffffffff1602179055506080820151816004015560a08201518160050160006101000a81548160ff021916908315150217905550905050600073ffffffffffffffffffffffffffffffffffffffff163373ffffffffffffffffffffffffffffffffffffffff16837f1dc5a1dce721bde204cea3cf00adbc9fcd925fa684b7397bbc7efe8f57cc616c84426040516111089291906126aa565b60405180910390a45050565b61111c6117ea565b611124611851565b6001600084815260200190815260200160002060026000858152602001908152602001600020816040518060c001604052908160008201548152602001600182018054611170906121e1565b80601f016020809104026020016040519081016040528092919081815260200182805461119c906121e1565b80156111e95780601f106111be576101008083540402835291602001916111e9565b820191906000526020600020905b8154815290600101906020018083116111cc57829003601f168201915b505050505081526020016002820160009054906101000a900473ffffffffffffffffffffffffffffffffffffffff1673ffffffffffffffffffffffffffffffffffffffff1673ffffffffffffffffffffffffffffffffffffffff1681526020016003820160009054906101000a900473ffffffffffffffffffffffffffffffffffffffff1673ffffffffffffffffffffffffffffffffffffffff1673ffffffffffffffffffffffffffffffffffffffff168152602001600482015481526020016005820160009054906101000a900460ff1615151515815250509150806040518060800160405290816000820180546112e1906121e1565b80601f016020809104026020016040519081016040528092919081815260200182805461130d906121e1565b801561135a5780601f1061132f5761010080835404028352916020019161135a565b820191906000526020600020905b81548152906001019060200180831161133d57829003601f168201915b50505050508152602001600182018054611373906121e1565b80601f016020809104026020016040519081016040528092919081815260200182805461139f906121e1565b80156113ec5780601f106113c1576101008083540402835291602001916113ec565b820191906000526020600020905b8154815290600101906020018083116113cf57829003601f168201915b50505050508152602001600282018054611405906121e1565b80601f0160208091040260200160405190810160405280929190818152602001828054611431906121e1565b801561147e5780601f106114535761010080835404028352916020019161147e565b820191906000526020600020905b81548152906001019060200180831161146157829003601f168201915b50505050508152602001600382018054611497906121e1565b80601f01602080910402602001604051908101604052809291908181526020018280546114c3906121e1565b80156115105780601f106114e557610100808354040283529160200191611510565b820191906000526020600020905b8154815290600101906020018083116114f357829003601f168201915b505050505081525050905091509150915091565b6003602052816000526040600020818154811061154057600080fd5b90600052602060002001600091509150505481565b6060600360008373ffffffffffffffffffffffffffffffffffffffff1673ffffffffffffffffffffffffffffffffffffffff1681526020019081526020016000208054806020026020016040519081016040528092919081815260200182805480156115e057602002820191906000526020600020905b8154815260200190600101908083116115cc575b50505050509050919050565b60008054906101000a900473ffffffffffffffffffffffffffffffffffffffff1673ffffffffffffffffffffffffffffffffffffffff166383c0e354336040518263ffffffff1660e01b81526004016116459190612212565b602060405180830381865afa158015611662573d6000803e3d6000fd5b505050506040513d601f19601f820116820180604052508101906116869190612259565b6116c5576040517f08c379a00000000000000000000000000000000000000000000000000000000081526004016116bc906122d2565b60405180910390fd5b3373ffffffffffffffffffffffffffffffffffffffff166001600083815260200190815260200160002060020160009054906101000a900473ffffffffffffffffffffffffffffffffffffffff1673ffffffffffffffffffffffffffffffffffffffff1614611769576040517f08c379a00000000000000000000000000000000000000000000000000000000081526004016117609061274c565b60405180910390fd5b60006001600083815260200190815260200160002060050160006101000a81548160ff0219169083151502179055503373ffffffffffffffffffffffffffffffffffffffff16817f85fe6dd2dfc4757558754564c7ff020182ec3c918257c2ff3a217a63791ec24f426040516117df919061276c565b60405180910390a350565b6040518060c001604052806000801916815260200160608152602001600073ffffffffffffffffffffffffffffffffffffffff168152602001600073ffffffffffffffffffffffffffffffffffffffff168152602001600081526020016000151581525090565b6040518060800160405280606081526020016060815260200160608152602001606081525090565b6000604051905090565b600080fd5b600080fd5b6000819050919050565b6118a08161188d565b81146118ab57600080fd5b50565b6000813590506118bd81611897565b92915050565b6000602082840312156118d9576118d8611883565b5b60006118e7848285016118ae565b91505092915050565b60008115159050919050565b611905816118f0565b82525050565b600060208201905061192060008301846118fc565b92915050565b600081519050919050565b600082825260208201905092915050565b60005b83811015611960578082015181840152602081019050611945565b60008484015250505050565b6000601f19601f8301169050919050565b600061198882611926565b6119928185611931565b93506119a2818560208601611942565b6119ab8161196c565b840191505092915050565b600060808201905081810360008301526119d0818761197d565b905081810360208301526119e4818661197d565b905081810360408301526119f8818561197d565b90508181036060830152611a0c818461197d565b905095945050505050565b600073ffffffffffffffffffffffffffffffffffffffff82169050919050565b6000819050919050565b6000611a5c611a57611a5284611a17565b611a37565b611a17565b9050919050565b6000611a6e82611a41565b9050919050565b6000611a8082611a63565b9050919050565b611a9081611a75565b82525050565b6000602082019050611aab6000830184611a87565b92915050565b600080fd5b600080fd5b7f4e487b7100000000000000000000000000000000000000000000000000000000600052604160045260246000fd5b611af38261196c565b810181811067ffffffffffffffff82111715611b1257611b11611abb565b5b80604052505050565b6000611b25611879565b9050611b318282611aea565b919050565b600067ffffffffffffffff821115611b5157611b50611abb565b5b611b5a8261196c565b9050602081019050919050565b82818337600083830152505050565b6000611b89611b8484611b36565b611b1b565b905082815260208101848484011115611ba557611ba4611ab6565b5b611bb0848285611b67565b509392505050565b600082601f830112611bcd57611bcc611ab1565b5b8135611bdd848260208601611b76565b91505092915050565b6000611bf182611a17565b9050919050565b611c0181611be6565b8114611c0c57600080fd5b50565b600081359050611c1e81611bf8565b92915050565b600080600080600080600060e0888a031215611c4357611c42611883565b5b6000611c518a828b016118ae565b975050602088013567ffffffffffffffff811115611c7257611c71611888565b5b611c7e8a828b01611bb8565b9650506040611c8f8a828b01611c0f565b955050606088013567ffffffffffffffff811115611cb057611caf611888565b5b611cbc8a828b01611bb8565b945050608088013567ffffffffffffffff811115611cdd57611cdc611888565b5b611ce98a828b01611bb8565b93505060a088013567ffffffffffffffff811115611d0a57611d09611888565b5b611d168a828b01611bb8565b92505060c088013567ffffffffffffffff811115611d3757611d36611888565b5b611d438a828b01611bb8565b91505092959891949750929550565b600060208284031215611d6857611d67611883565b5b6000611d7684828501611c0f565b91505092915050565b600081519050919050565b600082825260208201905092915050565b6000819050602082019050919050565b611db48161188d565b82525050565b6000611dc68383611dab565b60208301905092915050565b6000602082019050919050565b6000611dea82611d7f565b611df48185611d8a565b9350611dff83611d9b565b8060005b83811015611e30578151611e178882611dba565b9750611e2283611dd2565b925050600181019050611e03565b5085935050505092915050565b60006020820190508181036000830152611e578184611ddf565b905092915050565b6000819050919050565b611e7281611e5f565b8114611e7d57600080fd5b50565b600081359050611e8f81611e69565b92915050565b60008060408385031215611eac57611eab611883565b5b6000611eba85828601611c0f565b9250506020611ecb85828601611e80565b9150509250929050565b611ede8161188d565b82525050565b6000602082019050611ef96000830184611ed5565b92915050565b611f0881611be6565b82525050565b611f1781611e5f565b82525050565b600060c082019050611f326000830189611ed5565b8181036020830152611f44818861197d565b9050611f536040830187611eff565b611f606060830186611eff565b611f6d6080830185611f0e565b611f7a60a08301846118fc565b979650505050505050565b600082825260208201905092915050565b6000611fa182611926565b611fab8185611f85565b9350611fbb818560208601611942565b611fc48161196c565b840191505092915050565b611fd881611be6565b82525050565b611fe781611e5f565b82525050565b611ff6816118f0565b82525050565b600060c0830160008301516120146000860182611dab565b506020830151848203602086015261202c8282611f96565b91505060408301516120416040860182611fcf565b5060608301516120546060860182611fcf565b5060808301516120676080860182611fde565b5060a083015161207a60a0860182611fed565b508091505092915050565b6000602082019050818103600083015261209f8184611ffc565b905092915050565b600080604083850312156120be576120bd611883565b5b60006120cc858286016118ae565b925050602083013567ffffffffffffffff8111156120ed576120ec611888565b5b6120f985828601611bb8565b9150509250929050565b600060808301600083015184820360008601526121208282611f96565b9150506020830151848203602086015261213a8282611f96565b915050604083015184820360408601526121548282611f96565b9150506060830151848203606086015261216e8282611f96565b9150508091505092915050565b600060408201905081810360008301526121958185611ffc565b905081810360208301526121a98184612103565b90509392505050565b7f4e487b7100000000000000000000000000000000000000000000000000000000600052602260045260246000fd5b600060028204905060018216806121f957607f821691505b60208210810361220c5761220b6121b2565b5b50919050565b60006020820190506122276000830184611eff565b92915050565b612236816118f0565b811461224157600080fd5b50565b6000815190506122538161222d565b92915050565b60006020828403121561226f5761226e611883565b5b600061227d84828501612244565b91505092915050565b7f4e6f742061207265676973746572656420696e737469747574696f6e00000000600082015250565b60006122bc601c83611931565b91506122c782612286565b602082019050919050565b600060208201905081810360008301526122eb816122af565b9050919050565b7f496e76616c696420636572746966696361746520686173680000000000000000600082015250565b6000612328601883611931565b9150612333826122f2565b602082019050919050565b600060208201905081810360008301526123578161231b565b9050919050565b7f4950465320434944206973207265717569726564000000000000000000000000600082015250565b6000612394601483611931565b915061239f8261235e565b602082019050919050565b600060208201905081810360008301526123c381612387565b9050919050565b7f496e76616c69642073747564656e742061646472657373000000000000000000600082015250565b6000612400601783611931565b915061240b826123ca565b602082019050919050565b6000602082019050818103600083015261242f816123f3565b9050919050565b60008190508160005260206000209050919050565b60006020601f8301049050919050565b600082821b905092915050565b6000600883026124987fffffffffffffffffffffffffffffffffffffffffffffffffffffffffffffffff8261245b565b6124a2868361245b565b95508019841693508086168417925050509392505050565b60006124d56124d06124cb84611e5f565b611a37565b611e5f565b9050919050565b6000819050919050565b6124ef836124ba565b6125036124fb826124dc565b848454612468565b825550505050565b600090565b61251861250b565b6125238184846124e6565b505050565b5b818110156125475761253c600082612510565b600181019050612529565b5050565b601f82111561258c5761255d81612436565b6125668461244b565b81016020851015612575578190505b6125896125818561244b565b830182612528565b50505b505050565b600082821c905092915050565b60006125af60001984600802612591565b1980831691505092915050565b60006125c8838361259e565b9150826002028217905092915050565b6125e182611926565b67ffffffffffffffff8111156125fa576125f9611abb565b5b61260482546121e1565b61260f82828561254b565b600060209050601f8311600181146126425760008415612630578287015190505b61263a85826125bc565b8655506126a2565b601f19841661265086612436565b60005b8281101561267857848901518255600182019150602085019450602081019050612653565b868310156126955784890151612691601f89168261259e565b8355505b6001600288020188555050505b505050505050565b600060408201905081810360008301526126c4818561197d565b90506126d36020830184611f0e565b9392505050565b7f596f7520646964206e6f7420697373756520746869732063657274696669636160008201527f7465000000000000000000000000000000000000000000000000000000000000602082015250565b6000612736602283611931565b9150612741826126da565b604082019050919050565b6000602082019050818103600083015261276581612729565b9050919050565b60006020820190506127816000830184611f0e565b9291505056fea26469706673582212206a3a54810326eb9e272276fee6eec44210b96687f011870d9b41d8a8ce2dfb8064736f6c634300081c0033",
  "linkReferences": {},
  "deployedLinkReferences": {}
}