{
  "_format": "hh-sol-artifact-1",
  "contractName": "StudentRegistry",
  "sourceName": "contracts/StudentRegistry.sol",
  "abi": [
    {
      "anonymous": false,
      "inputs": [
        {
          "indexed": true,
          "internalType": "address",
          "name": "student",
          "type": "address"
        },
        {
          "indexed": false,
          "internalType": "string",
          "name": "studentId",
          "type": "string"
        }
      ],
      "name": "StudentRegistered",
      "type": "event"
    },
    {
      "anonymous": false,
      "inputs": [
        {
          "indexed": true,
          "internalType": "address",
          "name": "student",
          "type": "address"
        },
        {
          "indexed": false,
          "internalType": "string",
          "name": "studentId",
          "type": "string"
        }
      ],
      "name": "StudentUpdated",
      "type": "event"
    },
    {
      "inputs": [
        {
          "internalType": "string",
          "name": "studentId",
          "type": "string"
        }
      ],
      "name": "getAddressByStudentId",
      "outputs": [
        {
          "internalType": "address",
          "name": "",
          "type": "address"
        }
      ],
      "stateMutability": "view",
      "type": "function"
    },
    {
      "inputs": [],
      "name": "getAllStudents",
      "outputs": [
        {
          "internalType": "address[]",
          "name": "",
          "type": "address[]"
        }
      ],
      "stateMutability": "view",
      "type": "function"
    },
    {
      "inputs": [
        {
          "internalType": "address",
          "name": "walletAddress",
          "type": "address"
        }
      ],
      "name": "getStudent",
      "outputs": [
        {
          "components": [
            {
              "internalType": "address",
              "name": "walletAddress",
              "type": "address"
            },
            {
              "internalType": "string",
              "name": "studentId",
              "type": "string"
            },
            {
              "internalType": "string",
              "name": "name",
              "type": "string"
            },
            {
              "internalType": "string",
              "name": "dateOfBirth",
              "type": "string"
            },
            {
              "internalType": "bool",
              "name": "registered",
              "type": "bool"
            },
            {
              "internalType": "uint256",
              "name": "registeredAt",
              "type": "uint256"
            }
          ],
          "internalType": "struct StudentRegistry.Student",
          "name": "",
          "type": "tuple"
        }
      ],
      "stateMutability": "view",
      "type": "function"
    },
    {
      "inputs": [
        {
          "internalType": "address",
          "name": "walletAddress",
          "type": "address"
        }
      ],
      "name": "isStudentRegistered",
      "outputs": [
        {
          "internalType": "bool",
          "name": "",
          "type": "bool"
        }
      ],
      "stateMutability": "view",
      "type": "function"
    },
    {
      "inputs": [
        {
          "internalType": "address",
          "name": "walletAddress",
          "type": "address"
        },
        {
          "internalType": "string",
          "name": "studentId",
          "type": "string"
        },
        {
          "internalType": "string",
          "name": "name",
          "type": "string"
        },
        {
          "internalType": "string",
          "name": "dateOfBirth",
          "type": "string"
        }
      ],
      "name": "registerStudent",
      "outputs": [],
      "stateMutability": "nonpayable",
      "type": "function"
    },
    {
      "inputs": [
        {
          "internalType": "uint256",
          "name": "",
          "type": "uint256"
        }
      ],
      "name": "registeredStudents",
      "outputs": [
        {
          "internalType": "address",
          "name": "",
          "type": "address"
        }
      ],
      "stateMutability": "view",
      "type": "function"
    },
    {
      "inputs": [
        {
          "internalType": "string",
          "name": "",
          "type": "string"
        }
      ],
      "name": "studentIdToAddress",
      "outputs": [
        {
          "internalType": "address",
          "name": "",
          "type": "address"
        }
      ],
      "stateMutability": "view",
      "type": "function"
    },
    {
      "inputs": [
        {
          "internalType": "address",
          "name": "",
          "type": "address"
        }
      ],
      "name": "students",
      "outputs": [
        {
          "internalType": "address",
          "name": "walletAddress",
          "type": "address"
        },
        {
          "internalType": "string",
          "name": "studentId",
          "type": "string"
        },
        {
          "internalType": "string",
          "name": "name",
          "type": "string"
        },
        {
          "internalType": "string",
          "name": "dateOfBirth",
          "type": "string"
        },
        {
          "internalType": "bool",
          "name": "registered",
          "type": "bool"
        },
        {
          "internalType": "uint256",
          "name": "registeredAt",
          "type": "uint256"
        }
      ],
      "stateMutability": "view",
      "type": "function"
    },
    {
      "inputs": [
        {
          "internalType": "address",
          "name": "walletAddress",
          "type": "address"
        },
        {
          "internalType": "string",
          "name": "name",
          "type": "string"
        },
        {
          "internalType": "string",
          "name": "dateOfBirth",
          "type": "string"
        }
      ],
      "name": "updateStudent",
      "outputs": [],
      "stateMutability": "nonpayable",
      "type": "function"
    }
  ],
  "bytecode": "0x6080604052348015600f57600080fd5b50611d1e8061001f6000396000f3fe608060405234801561001057600080fd5b50600436106100935760003560e01c8063721c522a11610066578063721c522a14610144578063a6c807a914610174578063b8b2e42c146101a9578063e9e30927146101d9578063fb548ffc146101f757610093565b8063102b453b146100985780631e91297c146100c857806368528adf146100e45780636b7b44d714610114575b600080fd5b6100b260048036038101906100ad9190611085565b610213565b6040516100bf919061110f565b60405180910390f35b6100e260048036038101906100dd9190611156565b61025c565b005b6100fe60048036038101906100f99190611085565b610699565b60405161010b919061110f565b60405180910390f35b61012e60048036038101906101299190611211565b6106e1565b60405161013b9190611397565b60405180910390f35b61015e600480360381019061015991906113e5565b6109f8565b60405161016b919061110f565b60405180910390f35b61018e60048036038101906101899190611211565b610a37565b6040516101a09695949392919061147a565b60405180910390f35b6101c360048036038101906101be9190611211565b610c38565b6040516101d091906114f0565b60405180910390f35b6101e1610c90565b6040516101ee91906115ba565b60405180910390f35b610211600480360381019061020c91906115dc565b610d1e565b005b6001818051602081018201805184825260208301602085012081835280955050505050506000915054906101000a900473ffffffffffffffffffffffffffffffffffffffff1681565b600073ffffffffffffffffffffffffffffffffffffffff168473ffffffffffffffffffffffffffffffffffffffff16036102cb576040517f08c379a00000000000000000000000000000000000000000000000000000000081526004016102c2906116b3565b60405180910390fd5b600083511161030f576040517f08c379a00000000000000000000000000000000000000000000000000000000081526004016103069061171f565b60405180910390fd5b6000808573ffffffffffffffffffffffffffffffffffffffff1673ffffffffffffffffffffffffffffffffffffffff16815260200190815260200160002060040160009054906101000a900460ff161561039e576040517f08c379a00000000000000000000000000000000000000000000000000000000081526004016103959061178b565b60405180910390fd5b600073ffffffffffffffffffffffffffffffffffffffff166001846040516103c691906117e7565b908152602001604051809103902060009054906101000a900473ffffffffffffffffffffffffffffffffffffffff1673ffffffffffffffffffffffffffffffffffffffff161461044b576040517f08c379a00000000000000000000000000000000000000000000000000000000081526004016104429061184a565b60405180910390fd5b6040518060c001604052808573ffffffffffffffffffffffffffffffffffffffff168152602001848152602001838152602001828152602001600115158152602001428152506000808673ffffffffffffffffffffffffffffffffffffffff1673ffffffffffffffffffffffffffffffffffffffff16815260200190815260200160002060008201518160000160006101000a81548173ffffffffffffffffffffffffffffffffffffffff021916908373ffffffffffffffffffffffffffffffffffffffff160217905550602082015181600101908161052b9190611a76565b5060408201518160020190816105419190611a76565b5060608201518160030190816105579190611a76565b5060808201518160040160006101000a81548160ff02191690831515021790555060a082015181600501559050508360018460405161059691906117e7565b908152602001604051809103902060006101000a81548173ffffffffffffffffffffffffffffffffffffffff021916908373ffffffffffffffffffffffffffffffffffffffff1602179055506002849080600181540180825580915050600190039060005260206000200160009091909190916101000a81548173ffffffffffffffffffffffffffffffffffffffff021916908373ffffffffffffffffffffffffffffffffffffffff1602179055508373ffffffffffffffffffffffffffffffffffffffff167fc1b20826100814ba286ac576fe980df1dbbcef3d904bb81f3d69a0e8280dc1148460405161068b9190611b48565b60405180910390a250505050565b60006001826040516106ab91906117e7565b908152602001604051809103902060009054906101000a900473ffffffffffffffffffffffffffffffffffffffff169050919050565b6106e9610edd565b6000808373ffffffffffffffffffffffffffffffffffffffff1673ffffffffffffffffffffffffffffffffffffffff16815260200190815260200160002060040160009054906101000a900460ff16610777576040517f08c379a000000000000000000000000000000000000000000000000000000000815260040161076e90611bb6565b60405180910390fd5b6000808373ffffffffffffffffffffffffffffffffffffffff1673ffffffffffffffffffffffffffffffffffffffff1681526020019081526020016000206040518060c00160405290816000820160009054906101000a900473ffffffffffffffffffffffffffffffffffffffff1673ffffffffffffffffffffffffffffffffffffffff1673ffffffffffffffffffffffffffffffffffffffff16815260200160018201805461082690611899565b80601f016020809104026020016040519081016040528092919081815260200182805461085290611899565b801561089f5780601f106108745761010080835404028352916020019161089f565b820191906000526020600020905b81548152906001019060200180831161088257829003601f168201915b505050505081526020016002820180546108b890611899565b80601f01602080910402602001604051908101604052809291908181526020018280546108e490611899565b80156109315780601f1061090657610100808354040283529160200191610931565b820191906000526020600020905b81548152906001019060200180831161091457829003601f168201915b5050505050815260200160038201805461094a90611899565b80601f016020809104026020016040519081016040528092919081815260200182805461097690611899565b80156109c35780601f10610998576101008083540402835291602001916109c3565b820191906000526020600020905b8154815290600101906020018083116109a657829003601f168201915b505050505081526020016004820160009054906101000a900460ff161515151581526020016005820154815250509050919050565b60028181548110610a0857600080fd5b906000526020600020016000915054906101000a900473ffffffffffffffffffffffffffffffffffffffff1681565b60006020528060005260406000206000915090508060000160009054906101000a900473ffffffffffffffffffffffffffffffffffffffff1690806001018054610a8090611899565b80601f0160208091040260200160405190810160405280929190818152602001828054610aac90611899565b8015610af95780601f10610ace57610100808354040283529160200191610af9565b820191906000526020600020905b815481529060010190602001808311610adc57829003601f168201915b505050505090806002018054610b0e90611899565b80601f0160208091040260200160405190810160405280929190818152602001828054610b3a90611899565b8015610b875780601f10610b5c57610100808354040283529160200191610b87565b820191906000526020600020905b815481529060010190602001808311610b6a57829003601f168201915b505050505090806003018054610b9c90611899565b80601f0160208091040260200160405190810160405280929190818152602001828054610bc890611899565b8015610c155780601f10610bea57610100808354040283529160200191610c15565b820191906000526020600020905b815481529060010190602001808311610bf857829003601f168201915b5050505050908060040160009054906101000a900460ff16908060050154905086565b60008060008373ffffffffffffffffffffffffffffffffffffffff1673ffffffffffffffffffffffffffffffffffffffff16815260200190815260200160002060040160009054906101000a900460ff169050919050565b60606002805480602002602001604051908101604052809291908181526020018280548015610d1457602002820191906000526020600020905b8160009054906101000a900473ffffffffffffffffffffffffffffffffffffffff1673ffffffffffffffffffffffffffffffffffffffff1681526020019060010190808311610cca575b5050505050905090565b6000808473ffffffffffffffffffffffffffffffffffffffff1673ffffffffffffffffffffffffffffffffffffffff16815260200190815260200160002060040160009054906101000a900460ff16610dac576040517f08c379a0000000000000000000000000000000000000000000000000000000008152600401610da390611c22565b60405180910390fd5b816000808573ffffffffffffffffffffffffffffffffffffffff1673ffffffffffffffffffffffffffffffffffffffff1681526020019081526020016000206002019081610dfa9190611a76565b50806000808573ffffffffffffffffffffffffffffffffffffffff1673ffffffffffffffffffffffffffffffffffffffff1681526020019081526020016000206003019081610e499190611a76565b508273ffffffffffffffffffffffffffffffffffffffff167f5d96587cd7638c0254288e0ebecb53200b69da0dd775bcc5be707492a811ed116000808673ffffffffffffffffffffffffffffffffffffffff1673ffffffffffffffffffffffffffffffffffffffff168152602001908152602001600020600101604051610ed09190611cc6565b60405180910390a2505050565b6040518060c00160405280600073ffffffffffffffffffffffffffffffffffffffff168152602001606081526020016060815260200160608152602001600015158152602001600081525090565b6000604051905090565b600080fd5b600080fd5b600080fd5b600080fd5b6000601f19601f8301169050919050565b7f4e487b7100000000000000000000000000000000000000000000000000000000600052604160045260246000fd5b610f9282610f49565b810181811067ffffffffffffffff82111715610fb157610fb0610f5a565b5b80604052505050565b6000610fc4610f2b565b9050610fd08282610f89565b919050565b600067ffffffffffffffff821115610ff057610fef610f5a565b5b610ff982610f49565b9050602081019050919050565b82818337600083830152505050565b600061102861102384610fd5565b610fba565b90508281526020810184848401111561104457611043610f44565b5b61104f848285611006565b509392505050565b600082601f83011261106c5761106b610f3f565b5b813561107c848260208601611015565b91505092915050565b60006020828403121561109b5761109a610f35565b5b600082013567ffffffffffffffff8111156110b9576110b8610f3a565b5b6110c584828501611057565b91505092915050565b600073ffffffffffffffffffffffffffffffffffffffff82169050919050565b60006110f9826110ce565b9050919050565b611109816110ee565b82525050565b60006020820190506111246000830184611100565b92915050565b611133816110ee565b811461113e57600080fd5b50565b6000813590506111508161112a565b92915050565b600080600080608085870312156111705761116f610f35565b5b600061117e87828801611141565b945050602085013567ffffffffffffffff81111561119f5761119e610f3a565b5b6111ab87828801611057565b935050604085013567ffffffffffffffff8111156111cc576111cb610f3a565b5b6111d887828801611057565b925050606085013567ffffffffffffffff8111156111f9576111f8610f3a565b5b61120587828801611057565b91505092959194509250565b60006020828403121561122757611226610f35565b5b600061123584828501611141565b91505092915050565b611247816110ee565b82525050565b600081519050919050565b600082825260208201905092915050565b60005b8381101561128757808201518184015260208101905061126c565b60008484015250505050565b600061129e8261124d565b6112a88185611258565b93506112b8818560208601611269565b6112c181610f49565b840191505092915050565b60008115159050919050565b6112e1816112cc565b82525050565b6000819050919050565b6112fa816112e7565b82525050565b600060c083016000830151611318600086018261123e565b50602083015184820360208601526113308282611293565b9150506040830151848203604086015261134a8282611293565b915050606083015184820360608601526113648282611293565b915050608083015161137960808601826112d8565b5060a083015161138c60a08601826112f1565b508091505092915050565b600060208201905081810360008301526113b18184611300565b905092915050565b6113c2816112e7565b81146113cd57600080fd5b50565b6000813590506113df816113b9565b92915050565b6000602082840312156113fb576113fa610f35565b5b6000611409848285016113d0565b91505092915050565b600082825260208201905092915050565b600061142e8261124d565b6114388185611412565b9350611448818560208601611269565b61145181610f49565b840191505092915050565b611465816112cc565b82525050565b611474816112e7565b82525050565b600060c08201905061148f6000830189611100565b81810360208301526114a18188611423565b905081810360408301526114b58187611423565b905081810360608301526114c98186611423565b90506114d8608083018561145c565b6114e560a083018461146b565b979650505050505050565b6000602082019050611505600083018461145c565b92915050565b600081519050919050565b600082825260208201905092915050565b6000819050602082019050919050565b6000611543838361123e565b60208301905092915050565b6000602082019050919050565b60006115678261150b565b6115718185611516565b935061157c83611527565b8060005b838110156115ad5781516115948882611537565b975061159f8361154f565b925050600181019050611580565b5085935050505092915050565b600060208201905081810360008301526115d4818461155c565b905092915050565b6000806000606084860312156115f5576115f4610f35565b5b600061160386828701611141565b935050602084013567ffffffffffffffff81111561162457611623610f3a565b5b61163086828701611057565b925050604084013567ffffffffffffffff81111561165157611650610f3a565b5b61165d86828701611057565b9150509250925092565b7f496e76616c69642077616c6c6574206164647265737300000000000000000000600082015250565b600061169d601683611412565b91506116a882611667565b602082019050919050565b600060208201905081810360008301526116cc81611690565b9050919050565b7f53747564656e7420494420697320726571756972656400000000000000000000600082015250565b6000611709601683611412565b9150611714826116d3565b602082019050919050565b60006020820190508181036000830152611738816116fc565b9050919050565b7f53747564656e7420616c72656164792072656769737465726564000000000000600082015250565b6000611775601a83611412565b91506117808261173f565b602082019050919050565b600060208201905081810360008301526117a481611768565b9050919050565b600081905092915050565b60006117c18261124d565b6117cb81856117ab565b93506117db818560208601611269565b80840191505092915050565b60006117f382846117b6565b915081905092915050565b7f53747564656e7420494420616c726561647920696e2075736500000000000000600082015250565b6000611834601983611412565b915061183f826117fe565b602082019050919050565b6000602082019050818103600083015261186381611827565b9050919050565b7f4e487b7100000000000000000000000000000000000000000000000000000000600052602260045260246000fd5b600060028204905060018216806118b157607f821691505b6020821081036118c4576118c361186a565b5b50919050565b60008190508160005260206000209050919050565b60006020601f8301049050919050565b600082821b905092915050565b60006008830261192c7fffffffffffffffffffffffffffffffffffffffffffffffffffffffffffffffff826118ef565b61193686836118ef565b95508019841693508086168417925050509392505050565b6000819050919050565b600061197361196e611969846112e7565b61194e565b6112e7565b9050919050565b6000819050919050565b61198d83611958565b6119a16119998261197a565b8484546118fc565b825550505050565b600090565b6119b66119a9565b6119c1818484611984565b505050565b5b818110156119e5576119da6000826119ae565b6001810190506119c7565b5050565b601f821115611a2a576119fb816118ca565b611a04846118df565b81016020851015611a13578190505b611a27611a1f856118df565b8301826119c6565b50505b505050565b600082821c905092915050565b6000611a4d60001984600802611a2f565b1980831691505092915050565b6000611a668383611a3c565b9150826002028217905092915050565b611a7f8261124d565b67ffffffffffffffff811115611a9857611a97610f5a565b5b611aa28254611899565b611aad8282856119e9565b600060209050601f831160018114611ae05760008415611ace578287015190505b611ad88582611a5a565b865550611b40565b601f198416611aee866118ca565b60005b82811015611b1657848901518255600182019150602085019450602081019050611af1565b86831015611b335784890151611b2f601f891682611a3c565b8355505b6001600288020188555050505b505050505050565b60006020820190508181036000830152611b628184611423565b905092915050565b7f53747564656e74206e6f7420666f756e64000000000000000000000000000000600082015250565b6000611ba0601183611412565b9150611bab82611b6a565b602082019050919050565b60006020820190508181036000830152611bcf81611b93565b9050919050565b7f53747564656e74206e6f74207265676973746572656400000000000000000000600082015250565b6000611c0c601683611412565b9150611c1782611bd6565b602082019050919050565b60006020820190508181036000830152611c3b81611bff565b9050919050565b60008154611c4f81611899565b611c598186611412565b94506001821660008114611c745760018114611c8a57611cbd565b60ff198316865281151560200286019350611cbd565b611c93856118ca565b60005b83811015611cb557815481890152600182019150602081019050611c96565b808801955050505b50505092915050565b60006020820190508181036000830152611ce08184611c42565b90509291505056fea26469706673582212208135dc5a0d4669f6cdfc070b9a3952debfffc53d05d5da8c7fd927ba761aae5864736f6c634300081c0033",
  "linkReferences": {},
  "deployedLinkReferences": {}
}