{
  "_format": "hh-sol-artifact-1",
  "contractName": "InstitutionRegistry",
  "sourceName": "contracts/InstitutionRegistry.sol",
  "abi": [
    {
      "inputs": [],
      "stateMutability": "nonpayable",
      "type": "constructor"
    },
    {
      "anonymous": false,
      "inputs": [
        {
          "indexed": true,
          "internalType": "address",
          "name": "institution",
          "type": "address"
        },
        {
          "indexed": false,
          "internalType": "string",
          "name": "did",
          "type": "string"
        }
      ],
      "name": "InstitutionApproved",
      "type": "event"
    },
    {
      "anonymous": false,
      "inputs": [
        {
          "indexed": true,
          "internalType": "address",
          "name": "institution",
          "type": "address"
        },
        {
          "indexed": false,
          "internalType": "string",
          "name": "did",
          "type": "string"
        }
      ],
      "name": "InstitutionRejected",
      "type": "event"
    },
    {
      "anonymous": false,
      "inputs": [
        {
          "indexed": true,
          "internalType": "address",
          "name": "institution",
          "type": "address"
        }
      ],
      "name": "InstitutionRemoved",
      "type": "event"
    },
    {
      "anonymous": false,
      "inputs": [
        {
          "indexed": true,
          "internalType": "address",
          "name": "institution",
          "type": "address"
        },
        {
          "indexed": false,
          "internalType": "string",
          "name": "did",
          "type": "string"
        }
      ],
      "name": "InstitutionRequested",
      "type": "event"
    },
    {
      "inputs": [],
      "name": "admin",
      "outputs": [
        {
          "internalType": "address",
          "name": "",
          "type": "address"
        }
      ],
      "stateMutability": "view",
      "type": "function"
    },
    {
      "inputs": [
        {
          "internalType": "address",
          "name": "institutionAddr",
          "type": "address"
        }
      ],
      "name": "approveInstitution",
      "outputs": [],
      "stateMutability": "nonpayable",
      "type": "function"
    },
    {
      "inputs": [],
      "name": "getHistory",
      "outputs": [
        {
          "components": [
            {
              "internalType": "address",
              "name": "institutionAddr",
              "type": "address"
            },
            {
              "internalType": "string",
              "name": "name",
              "type": "string"
            },
            {
              "internalType": "string",
              "name": "physicalAddress",
              "type": "string"
            },
            {
              "internalType": "string",
              "name": "did",
              "type": "string"
            },
            {
              "internalType": "bool",
              "name": "approved",
              "type": "bool"
            },
            {
              "internalType": "uint256",
              "name": "timestamp",
              "type": "uint256"
            }
          ],
          "internalType": "struct InstitutionRegistry.HistoryEntry[]",
          "name": "",
          "type": "tuple[]"
        }
      ],
      "stateMutability": "view",
      "type": "function"
    },
    {
      "inputs": [
        {
          "internalType": "address",
          "name": "institutionAddr",
          "type": "address"
        }
      ],
      "name": "getInstitution",
      "outputs": [
        {
          "internalType": "string",
          "name": "",
          "type": "string"
        },
        {
          "internalType": "string",
          "name": "",
          "type": "string"
        },
        {
          "internalType": "string",
          "name": "",
          "type": "string"
        },
        {
          "internalType": "bool",
          "name": "",
          "type": "bool"
        },
        {
          "internalType": "uint256",
          "name": "",
          "type": "uint256"
        }
      ],
      "stateMutability": "view",
      "type": "function"
    },
    {
      "inputs": [],
      "name": "getInstitutions",
      "outputs": [
        {
          "internalType": "address[]",
          "name": "",
          "type": "address[]"
        }
      ],
      "stateMutability": "view",
      "type": "function"
    },
    {
      "inputs": [],
      "name": "getPendingInstitutions",
      "outputs": [
        {
          "components": [
            {
              "internalType": "address",
              "name": "institutionAddr",
              "type": "address"
            },
            {
              "internalType": "string",
              "name": "name",
              "type": "string"
            },
            {
              "internalType": "string",
              "name": "physicalAddress",
              "type": "string"
            },
            {
              "internalType": "string",
              "name": "did",
              "type": "string"
            },
            {
              "internalType": "uint256",
              "name": "timestamp",
              "type": "uint256"
            }
          ],
          "internalType": "struct InstitutionRegistry.PendingRequest[]",
          "name": "",
          "type": "tuple[]"
        }
      ],
      "stateMutability": "view",
      "type": "function"
    },
    {
      "inputs": [
        {
          "internalType": "address",
          "name": "institutionAddr",
          "type": "address"
        }
      ],
      "name": "isInstitutionRegistered",
      "outputs": [
        {
          "internalType": "bool",
          "name": "",
          "type": "bool"
        }
      ],
      "stateMutability": "view",
      "type": "function"
    },
    {
      "inputs": [
        {
          "internalType": "address",
          "name": "institutionAddr",
          "type": "address"
        },
        {
          "internalType": "string",
          "name": "did",
          "type": "string"
        }
      ],
      "name": "registerInstitution",
      "outputs": [],
      "stateMutability": "nonpayable",
      "type": "function"
    },
    {
      "inputs": [
        {
          "internalType": "address",
          "name": "institutionAddr",
          "type": "address"
        },
        {
          "internalType": "string",
          "name": "did",
          "type": "string"
        },
        {
          "internalType": "string",
          "name": "name",
          "type": "string"
        },
        {
          "internalType": "string",
          "name": "physicalAddress",
          "type": "string"
        }
      ],
      "name": "registerInstitution",
      "outputs": [],
      "stateMutability": "nonpayable",
      "type": "function"
    },
    {
      "inputs": [
        {
          "internalType": "address",
          "name": "institutionAddr",
          "type": "address"
        }
      ],
      "name": "rejectInstitution",
      "outputs": [],
      "stateMutability": "nonpayable",
      "type": "function"
    },
    {
      "inputs": [
        {
          "internalType": "address",
          "name": "institutionAddr",
          "type": "address"
        }
      ],
      "name": "removeInstitution",
      "outputs": [],
      "stateMutability": "nonpayable",
      "type": "function"
    }
  ],
  "bytecode": "0x6080604052348015600f57600080fd5b50336000806101000a81548173ffffffffffffffffffffffffffffffffffffffff021916908373ffffffffffffffffffffffffffffffffffffffff16021790555061344b8061005f6000396000f3fe608060405234801561001057600080fd5b50600436106100a95760003560e01c80638747d5ed116100715780638747d5ed14610166578063876d032e14610182578063aa15efc8146101a0578063b93262e5146101be578063d82b0844146101dc578063f851a440146101f8576100a9565b80631f6b05f4146100ae5780632fd9b702146100ca5780634708e248146100e6578063711992361461010257806383c0e35414610136575b600080fd5b6100c860048036038101906100c39190612657565b610216565b005b6100e460048036038101906100df91906126b3565b610244565b005b61010060048036038101906100fb91906126e0565b6108fd565b005b61011c600480360381019061011791906126b3565b610c1a565b60405161012d95949392919061284e565b60405180910390f35b610150600480360381019061014b91906126b3565b610e78565b60405161015d91906128b6565b60405180910390f35b610180600480360381019061017b91906126b3565b610ed1565b005b61018a6114d2565b604051610197919061298f565b60405180910390f35b6101a8611560565b6040516101b59190612b72565b60405180910390f35b6101c66117f0565b6040516101d39190612cda565b60405180910390f35b6101f660048036038101906101f191906126b3565b611a65565b005b610200611fd7565b60405161020d9190612d0b565b60405180910390f35b610240828260405180602001604052806000815250604051806020016040528060008152506108fd565b5050565b60008054906101000a900473ffffffffffffffffffffffffffffffffffffffff1673ffffffffffffffffffffffffffffffffffffffff163373ffffffffffffffffffffffffffffffffffffffff16146102d2576040517f08c379a00000000000000000000000000000000000000000000000000000000081526004016102c990612d98565b60405180910390fd5b80600073ffffffffffffffffffffffffffffffffffffffff168173ffffffffffffffffffffffffffffffffffffffff1603610342576040517f08c379a000000000000000000000000000000000000000000000000000000000815260040161033990612e04565b60405180910390fd5b6000600460008473ffffffffffffffffffffffffffffffffffffffff1673ffffffffffffffffffffffffffffffffffffffff168152602001908152602001600020549050600081036103c9576040517f08c379a00000000000000000000000000000000000000000000000000000000081526004016103c090612e96565b60405180910390fd5b60006001826103d89190612ee5565b90506000600382815481106103f0576103ef612f19565b5b90600052602060002090600502016040518060a00160405290816000820160009054906101000a900473ffffffffffffffffffffffffffffffffffffffff1673ffffffffffffffffffffffffffffffffffffffff1673ffffffffffffffffffffffffffffffffffffffff16815260200160018201805461046f90612f77565b80601f016020809104026020016040519081016040528092919081815260200182805461049b90612f77565b80156104e85780601f106104bd576101008083540402835291602001916104e8565b820191906000526020600020905b8154815290600101906020018083116104cb57829003601f168201915b5050505050815260200160028201805461050190612f77565b80601f016020809104026020016040519081016040528092919081815260200182805461052d90612f77565b801561057a5780601f1061054f5761010080835404028352916020019161057a565b820191906000526020600020905b81548152906001019060200180831161055d57829003601f168201915b5050505050815260200160038201805461059390612f77565b80601f01602080910402602001604051908101604052809291908181526020018280546105bf90612f77565b801561060c5780601f106105e15761010080835404028352916020019161060c565b820191906000526020600020905b8154815290600101906020018083116105ef57829003601f168201915b5050505050815260200160048201548152505090506040518060a0016040528082602001518152602001826040015181526020018260600151815260200160011515815260200142815250600160008773ffffffffffffffffffffffffffffffffffffffff1673ffffffffffffffffffffffffffffffffffffffff16815260200190815260200160002060008201518160000190816106ab9190613154565b5060208201518160010190816106c19190613154565b5060408201518160020190816106d79190613154565b5060608201518160030160006101000a81548160ff021916908315150217905550608082015181600401559050506002859080600181540180825580915050600190039060005260206000200160009091909190916101000a81548173ffffffffffffffffffffffffffffffffffffffff021916908373ffffffffffffffffffffffffffffffffffffffff16021790555060056040518060c001604052808773ffffffffffffffffffffffffffffffffffffffff16815260200183602001518152602001836040015181526020018360600151815260200160011515815260200142815250908060018154018082558091505060019003906000526020600020906006020160009091909190915060008201518160000160006101000a81548173ffffffffffffffffffffffffffffffffffffffff021916908373ffffffffffffffffffffffffffffffffffffffff16021790555060208201518160010190816108419190613154565b5060408201518160020190816108579190613154565b50606082015181600301908161086d9190613154565b5060808201518160040160006101000a81548160ff02191690831515021790555060a0820151816005015550506108a48286611ffb565b8473ffffffffffffffffffffffffffffffffffffffff167f2d870452af8daaf8f84266fec291a309e0d593b1b820bab5ad9fec0d338554d682606001516040516108ee9190613226565b60405180910390a25050505050565b83600073ffffffffffffffffffffffffffffffffffffffff168173ffffffffffffffffffffffffffffffffffffffff160361096d576040517f08c379a000000000000000000000000000000000000000000000000000000000815260040161096490612e04565b60405180910390fd5b600160008673ffffffffffffffffffffffffffffffffffffffff1673ffffffffffffffffffffffffffffffffffffffff16815260200190815260200160002060030160009054906101000a900460ff16156109fd576040517f08c379a00000000000000000000000000000000000000000000000000000000081526004016109f490613294565b60405180910390fd5b6000600460008773ffffffffffffffffffffffffffffffffffffffff1673ffffffffffffffffffffffffffffffffffffffff1681526020019081526020016000205414610a7f576040517f08c379a0000000000000000000000000000000000000000000000000000000008152600401610a7690613326565b60405180910390fd5b60036040518060a001604052808773ffffffffffffffffffffffffffffffffffffffff16815260200185815260200184815260200186815260200142815250908060018154018082558091505060019003906000526020600020906005020160009091909190915060008201518160000160006101000a81548173ffffffffffffffffffffffffffffffffffffffff021916908373ffffffffffffffffffffffffffffffffffffffff1602179055506020820151816001019081610b439190613154565b506040820151816002019081610b599190613154565b506060820151816003019081610b6f9190613154565b50608082015181600401555050600380549050600460008773ffffffffffffffffffffffffffffffffffffffff1673ffffffffffffffffffffffffffffffffffffffff168152602001908152602001600020819055508473ffffffffffffffffffffffffffffffffffffffff167f200e3585612bec7ae2e6a9d2312e70615a14a7e2e2dec7f7e1b7f68d00e54c0385604051610c0b9190613226565b60405180910390a25050505050565b60608060606000806000600160008873ffffffffffffffffffffffffffffffffffffffff1673ffffffffffffffffffffffffffffffffffffffff1681526020019081526020016000206040518060a0016040529081600082018054610c7e90612f77565b80601f0160208091040260200160405190810160405280929190818152602001828054610caa90612f77565b8015610cf75780601f10610ccc57610100808354040283529160200191610cf7565b820191906000526020600020905b815481529060010190602001808311610cda57829003601f168201915b50505050508152602001600182018054610d1090612f77565b80601f0160208091040260200160405190810160405280929190818152602001828054610d3c90612f77565b8015610d895780601f10610d5e57610100808354040283529160200191610d89565b820191906000526020600020905b815481529060010190602001808311610d6c57829003601f168201915b50505050508152602001600282018054610da290612f77565b80601f0160208091040260200160405190810160405280929190818152602001828054610dce90612f77565b8015610e1b5780601f10610df057610100808354040283529160200191610e1b565b820191906000526020600020905b815481529060010190602001808311610dfe57829003601f168201915b505050505081526020016003820160009054906101000a900460ff16151515158152602001600482015481525050905080600001518160200151826040015183606001518460800151955095509550955095505091939590929450565b6000600160008373ffffffffffffffffffffffffffffffffffffffff1673ffffffffffffffffffffffffffffffffffffffff16815260200190815260200160002060030160009054906101000a900460ff169050919050565b60008054906101000a900473ffffffffffffffffffffffffffffffffffffffff1673ffffffffffffffffffffffffffffffffffffffff163373ffffffffffffffffffffffffffffffffffffffff1614610f5f576040517f08c379a0000000000000000000000000000000000000000000000000000000008152600401610f5690612d98565b60405180910390fd5b80600073ffffffffffffffffffffffffffffffffffffffff168173ffffffffffffffffffffffffffffffffffffffff1603610fcf576040517f08c379a0000000000000000000000000000000000000000000000000000000008152600401610fc690612e04565b60405180910390fd5b600160008373ffffffffffffffffffffffffffffffffffffffff1673ffffffffffffffffffffffffffffffffffffffff16815260200190815260200160002060030160009054906101000a900460ff1615611493576000600160008473ffffffffffffffffffffffffffffffffffffffff1673ffffffffffffffffffffffffffffffffffffffff16815260200190815260200160002060030160006101000a81548160ff0219169083151502179055506000600160008473ffffffffffffffffffffffffffffffffffffffff1673ffffffffffffffffffffffffffffffffffffffff1681526020019081526020016000206004018190555060056040518060c001604052808473ffffffffffffffffffffffffffffffffffffffff168152602001600160008673ffffffffffffffffffffffffffffffffffffffff1673ffffffffffffffffffffffffffffffffffffffff168152602001908152602001600020600001805461113d90612f77565b80601f016020809104026020016040519081016040528092919081815260200182805461116990612f77565b80156111b65780601f1061118b576101008083540402835291602001916111b6565b820191906000526020600020905b81548152906001019060200180831161119957829003601f168201915b50505050508152602001600160008673ffffffffffffffffffffffffffffffffffffffff1673ffffffffffffffffffffffffffffffffffffffff168152602001908152602001600020600101805461120d90612f77565b80601f016020809104026020016040519081016040528092919081815260200182805461123990612f77565b80156112865780601f1061125b57610100808354040283529160200191611286565b820191906000526020600020905b81548152906001019060200180831161126957829003601f168201915b50505050508152602001600160008673ffffffffffffffffffffffffffffffffffffffff1673ffffffffffffffffffffffffffffffffffffffff16815260200190815260200160002060020180546112dd90612f77565b80601f016020809104026020016040519081016040528092919081815260200182805461130990612f77565b80156113565780601f1061132b57610100808354040283529160200191611356565b820191906000526020600020905b81548152906001019060200180831161133957829003601f168201915b5050505050815260200160001515815260200142815250908060018154018082558091505060019003906000526020600020906006020160009091909190915060008201518160000160006101000a81548173ffffffffffffffffffffffffffffffffffffffff021916908373ffffffffffffffffffffffffffffffffffffffff16021790555060208201518160010190816113f29190613154565b5060408201518160020190816114089190613154565b50606082015181600301908161141e9190613154565b5060808201518160040160006101000a81548160ff02191690831515021790555060a0820151816005015550508173ffffffffffffffffffffffffffffffffffffffff167f1b0b878d06167e60e076b932df41de2b519d804c80445961e705ffbc98091f8760405160405180910390a26114ce565b6040517f08c379a00000000000000000000000000000000000000000000000000000000081526004016114c590613392565b60405180910390fd5b5050565b6060600280548060200260200160405190810160405280929190818152602001828054801561155657602002820191906000526020600020905b8160009054906101000a900473ffffffffffffffffffffffffffffffffffffffff1673ffffffffffffffffffffffffffffffffffffffff168152602001906001019080831161150c575b5050505050905090565b60606005805480602002602001604051908101604052809291908181526020016000905b828210156117e757838290600052602060002090600602016040518060c00160405290816000820160009054906101000a900473ffffffffffffffffffffffffffffffffffffffff1673ffffffffffffffffffffffffffffffffffffffff1673ffffffffffffffffffffffffffffffffffffffff16815260200160018201805461160d90612f77565b80601f016020809104026020016040519081016040528092919081815260200182805461163990612f77565b80156116865780601f1061165b57610100808354040283529160200191611686565b820191906000526020600020905b81548152906001019060200180831161166957829003601f168201915b5050505050815260200160028201805461169f90612f77565b80601f01602080910402602001604051908101604052809291908181526020018280546116cb90612f77565b80156117185780601f106116ed57610100808354040283529160200191611718565b820191906000526020600020905b8154815290600101906020018083116116fb57829003601f168201915b5050505050815260200160038201805461173190612f77565b80601f016020809104026020016040519081016040528092919081815260200182805461175d90612f77565b80156117aa5780601f1061177f576101008083540402835291602001916117aa565b820191906000526020600020905b81548152906001019060200180831161178d57829003601f168201915b505050505081526020016004820160009054906101000a900460ff1615151515815260200160058201548152505081526020019060010190611584565b50505050905090565b60606003805480602002602001604051908101604052809291908181526020016000905b82821015611a5c57838290600052602060002090600502016040518060a00160405290816000820160009054906101000a900473ffffffffffffffffffffffffffffffffffffffff1673ffffffffffffffffffffffffffffffffffffffff1673ffffffffffffffffffffffffffffffffffffffff16815260200160018201805461189d90612f77565b80601f01602080910402602001604051908101604052809291908181526020018280546118c990612f77565b80156119165780601f106118eb57610100808354040283529160200191611916565b820191906000526020600020905b8154815290600101906020018083116118f957829003601f168201915b5050505050815260200160028201805461192f90612f77565b80601f016020809104026020016040519081016040528092919081815260200182805461195b90612f77565b80156119a85780601f1061197d576101008083540402835291602001916119a8565b820191906000526020600020905b81548152906001019060200180831161198b57829003601f168201915b505050505081526020016003820180546119c190612f77565b80601f01602080910402602001604051908101604052809291908181526020018280546119ed90612f77565b8015611a3a5780601f10611a0f57610100808354040283529160200191611a3a565b820191906000526020600020905b815481529060010190602001808311611a1d57829003601f168201915b5050505050815260200160048201548152505081526020019060010190611814565b50505050905090565b60008054906101000a900473ffffffffffffffffffffffffffffffffffffffff1673ffffffffffffffffffffffffffffffffffffffff163373ffffffffffffffffffffffffffffffffffffffff1614611af3576040517f08c379a0000000000000000000000000000000000000000000000000000000008152600401611aea90612d98565b60405180910390fd5b80600073ffffffffffffffffffffffffffffffffffffffff168173ffffffffffffffffffffffffffffffffffffffff1603611b63576040517f08c379a0000000000000000000000000000000000000000000000000000000008152600401611b5a90612e04565b60405180910390fd5b6000600460008473ffffffffffffffffffffffffffffffffffffffff1673ffffffffffffffffffffffffffffffffffffffff16815260200190815260200160002054905060008103611bea576040517f08c379a0000000000000000000000000000000000000000000000000000000008152600401611be190612e96565b60405180910390fd5b6000600182611bf99190612ee5565b9050600060038281548110611c1157611c10612f19565b5b90600052602060002090600502016040518060a00160405290816000820160009054906101000a900473ffffffffffffffffffffffffffffffffffffffff1673ffffffffffffffffffffffffffffffffffffffff1673ffffffffffffffffffffffffffffffffffffffff168152602001600182018054611c9090612f77565b80601f0160208091040260200160405190810160405280929190818152602001828054611cbc90612f77565b8015611d095780601f10611cde57610100808354040283529160200191611d09565b820191906000526020600020905b815481529060010190602001808311611cec57829003601f168201915b50505050508152602001600282018054611d2290612f77565b80601f0160208091040260200160405190810160405280929190818152602001828054611d4e90612f77565b8015611d9b5780601f10611d7057610100808354040283529160200191611d9b565b820191906000526020600020905b815481529060010190602001808311611d7e57829003601f168201915b50505050508152602001600382018054611db490612f77565b80601f0160208091040260200160405190810160405280929190818152602001828054611de090612f77565b8015611e2d5780601f10611e0257610100808354040283529160200191611e2d565b820191906000526020600020905b815481529060010190602001808311611e1057829003601f168201915b50505050508152602001600482015481525050905060056040518060c001604052808773ffffffffffffffffffffffffffffffffffffffff16815260200183602001518152602001836040015181526020018360600151815260200160001515815260200142815250908060018154018082558091505060019003906000526020600020906006020160009091909190915060008201518160000160006101000a81548173ffffffffffffffffffffffffffffffffffffffff021916908373ffffffffffffffffffffffffffffffffffffffff1602179055506020820151816001019081611f1b9190613154565b506040820151816002019081611f319190613154565b506060820151816003019081611f479190613154565b5060808201518160040160006101000a81548160ff02191690831515021790555060a082015181600501555050611f7e8286611ffb565b8473ffffffffffffffffffffffffffffffffffffffff167f35ea3f4726133a85ef1d8a5b337bc5bfff19548db8828dfdc862032f8ddfdc538260600151604051611fc89190613226565b60405180910390a25050505050565b60008054906101000a900473ffffffffffffffffffffffffffffffffffffffff1681565b6000600160038054905061200f9190612ee5565b905080831461236e5760006003828154811061202e5761202d612f19565b5b90600052602060002090600502016040518060a00160405290816000820160009054906101000a900473ffffffffffffffffffffffffffffffffffffffff1673ffffffffffffffffffffffffffffffffffffffff1673ffffffffffffffffffffffffffffffffffffffff1681526020016001820180546120ad90612f77565b80601f01602080910402602001604051908101604052809291908181526020018280546120d990612f77565b80156121265780601f106120fb57610100808354040283529160200191612126565b820191906000526020600020905b81548152906001019060200180831161210957829003601f168201915b5050505050815260200160028201805461213f90612f77565b80601f016020809104026020016040519081016040528092919081815260200182805461216b90612f77565b80156121b85780601f1061218d576101008083540402835291602001916121b8565b820191906000526020600020905b81548152906001019060200180831161219b57829003601f168201915b505050505081526020016003820180546121d190612f77565b80601f01602080910402602001604051908101604052809291908181526020018280546121fd90612f77565b801561224a5780601f1061221f5761010080835404028352916020019161224a565b820191906000526020600020905b81548152906001019060200180831161222d57829003601f168201915b505050505081526020016004820154815250509050806003858154811061227457612273612f19565b5b906000526020600020906005020160008201518160000160006101000a81548173ffffffffffffffffffffffffffffffffffffffff021916908373ffffffffffffffffffffffffffffffffffffffff16021790555060208201518160010190816122de9190613154565b5060408201518160020190816122f49190613154565b50606082015181600301908161230a9190613154565b506080820151816004015590505060018461232591906133b2565b60046000836000015173ffffffffffffffffffffffffffffffffffffffff1673ffffffffffffffffffffffffffffffffffffffff16815260200190815260200160002081905550505b60038054806123805761237f6133e6565b5b6001900381819060005260206000209060050201600080820160006101000a81549073ffffffffffffffffffffffffffffffffffffffff02191690556001820160006123cc9190612442565b6002820160006123dc9190612442565b6003820160006123ec9190612442565b6004820160009055505090556000600460008473ffffffffffffffffffffffffffffffffffffffff1673ffffffffffffffffffffffffffffffffffffffff16815260200190815260200160002081905550505050565b50805461244e90612f77565b6000825580601f10612460575061247f565b601f01602090049060005260206000209081019061247e9190612482565b5b50565b5b8082111561249b576000816000905550600101612483565b5090565b6000604051905090565b600080fd5b600080fd5b600073ffffffffffffffffffffffffffffffffffffffff82169050919050565b60006124de826124b3565b9050919050565b6124ee816124d3565b81146124f957600080fd5b50565b60008135905061250b816124e5565b92915050565b600080fd5b600080fd5b6000601f19601f8301169050919050565b7f4e487b7100000000000000000000000000000000000000000000000000000000600052604160045260246000fd5b6125648261251b565b810181811067ffffffffffffffff821117156125835761258261252c565b5b80604052505050565b600061259661249f565b90506125a2828261255b565b919050565b600067ffffffffffffffff8211156125c2576125c161252c565b5b6125cb8261251b565b9050602081019050919050565b82818337600083830152505050565b60006125fa6125f5846125a7565b61258c565b90508281526020810184848401111561261657612615612516565b5b6126218482856125d8565b509392505050565b600082601f83011261263e5761263d612511565b5b813561264e8482602086016125e7565b91505092915050565b6000806040838503121561266e5761266d6124a9565b5b600061267c858286016124fc565b925050602083013567ffffffffffffffff81111561269d5761269c6124ae565b5b6126a985828601612629565b9150509250929050565b6000602082840312156126c9576126c86124a9565b5b60006126d7848285016124fc565b91505092915050565b600080600080608085870312156126fa576126f96124a9565b5b6000612708878288016124fc565b945050602085013567ffffffffffffffff811115612729576127286124ae565b5b61273587828801612629565b935050604085013567ffffffffffffffff811115612756576127556124ae565b5b61276287828801612629565b925050606085013567ffffffffffffffff811115612783576127826124ae565b5b61278f87828801612629565b91505092959194509250565b600081519050919050565b600082825260208201905092915050565b60005b838110156127d55780820151818401526020810190506127ba565b60008484015250505050565b60006127ec8261279b565b6127f681856127a6565b93506128068185602086016127b7565b61280f8161251b565b840191505092915050565b60008115159050919050565b61282f8161281a565b82525050565b6000819050919050565b61284881612835565b82525050565b600060a082019050818103600083015261286881886127e1565b9050818103602083015261287c81876127e1565b9050818103604083015261289081866127e1565b905061289f6060830185612826565b6128ac608083018461283f565b9695505050505050565b60006020820190506128cb6000830184612826565b92915050565b600081519050919050565b600082825260208201905092915050565b6000819050602082019050919050565b612906816124d3565b82525050565b600061291883836128fd565b60208301905092915050565b6000602082019050919050565b600061293c826128d1565b61294681856128dc565b9350612951836128ed565b8060005b83811015612982578151612969888261290c565b975061297483612924565b925050600181019050612955565b5085935050505092915050565b600060208201905081810360008301526129a98184612931565b905092915050565b600081519050919050565b600082825260208201905092915050565b6000819050602082019050919050565b600082825260208201905092915050565b60006129f98261279b565b612a0381856129dd565b9350612a138185602086016127b7565b612a1c8161251b565b840191505092915050565b612a308161281a565b82525050565b612a3f81612835565b82525050565b600060c083016000830151612a5d60008601826128fd565b5060208301518482036020860152612a7582826129ee565b91505060408301518482036040860152612a8f82826129ee565b91505060608301518482036060860152612aa982826129ee565b9150506080830151612abe6080860182612a27565b5060a0830151612ad160a0860182612a36565b508091505092915050565b6000612ae88383612a45565b905092915050565b6000602082019050919050565b6000612b08826129b1565b612b1281856129bc565b935083602082028501612b24856129cd565b8060005b85811015612b605784840389528151612b418582612adc565b9450612b4c83612af0565b925060208a01995050600181019050612b28565b50829750879550505050505092915050565b60006020820190508181036000830152612b8c8184612afd565b905092915050565b600081519050919050565b600082825260208201905092915050565b6000819050602082019050919050565b600060a083016000830151612bd860008601826128fd565b5060208301518482036020860152612bf082826129ee565b91505060408301518482036040860152612c0a82826129ee565b91505060608301518482036060860152612c2482826129ee565b9150506080830151612c396080860182612a36565b508091505092915050565b6000612c508383612bc0565b905092915050565b6000602082019050919050565b6000612c7082612b94565b612c7a8185612b9f565b935083602082028501612c8c85612bb0565b8060005b85811015612cc85784840389528151612ca98582612c44565b9450612cb483612c58565b925060208a01995050600181019050612c90565b50829750879550505050505092915050565b60006020820190508181036000830152612cf48184612c65565b905092915050565b612d05816124d3565b82525050565b6000602082019050612d206000830184612cfc565b92915050565b7f4f6e6c792061646d696e2063616e20706572666f726d2074686973206163746960008201527f6f6e000000000000000000000000000000000000000000000000000000000000602082015250565b6000612d826022836127a6565b9150612d8d82612d26565b604082019050919050565b60006020820190508181036000830152612db181612d75565b9050919050565b7f5a65726f2061646472657373206e6f7420616c6c6f7765640000000000000000600082015250565b6000612dee6018836127a6565b9150612df982612db8565b602082019050919050565b60006020820190508181036000830152612e1d81612de1565b9050919050565b7f4e6f2070656e64696e67207265717565737420666f722074686973206164647260008201527f6573730000000000000000000000000000000000000000000000000000000000602082015250565b6000612e806023836127a6565b9150612e8b82612e24565b604082019050919050565b60006020820190508181036000830152612eaf81612e73565b9050919050565b7f4e487b7100000000000000000000000000000000000000000000000000000000600052601160045260246000fd5b6000612ef082612835565b9150612efb83612835565b9250828203905081811115612f1357612f12612eb6565b5b92915050565b7f4e487b7100000000000000000000000000000000000000000000000000000000600052603260045260246000fd5b7f4e487b7100000000000000000000000000000000000000000000000000000000600052602260045260246000fd5b60006002820490506001821680612f8f57607f821691505b602082108103612fa257612fa1612f48565b5b50919050565b60008190508160005260206000209050919050565b60006020601f8301049050919050565b600082821b905092915050565b60006008830261300a7fffffffffffffffffffffffffffffffffffffffffffffffffffffffffffffffff82612fcd565b6130148683612fcd565b95508019841693508086168417925050509392505050565b6000819050919050565b600061305161304c61304784612835565b61302c565b612835565b9050919050565b6000819050919050565b61306b83613036565b61307f61307782613058565b848454612fda565b825550505050565b600090565b613094613087565b61309f818484613062565b505050565b5b818110156130c3576130b860008261308c565b6001810190506130a5565b5050565b601f821115613108576130d981612fa8565b6130e284612fbd565b810160208510156130f1578190505b6131056130fd85612fbd565b8301826130a4565b50505b505050565b600082821c905092915050565b600061312b6000198460080261310d565b1980831691505092915050565b6000613144838361311a565b9150826002028217905092915050565b61315d8261279b565b67ffffffffffffffff8111156131765761317561252c565b5b6131808254612f77565b61318b8282856130c7565b600060209050601f8311600181146131be57600084156131ac578287015190505b6131b68582613138565b86555061321e565b601f1984166131cc86612fa8565b60005b828110156131f4578489015182556001820191506020850194506020810190506131cf565b86831015613211578489015161320d601f89168261311a565b8355505b6001600288020188555050505b505050505050565b6000602082019050818103600083015261324081846127e1565b905092915050565b7f496e737469747574696f6e20616c726561647920617070726f76656400000000600082015250565b600061327e601c836127a6565b915061328982613248565b602082019050919050565b600060208201905081810360008301526132ad81613271565b9050919050565b7f496e737469747574696f6e20616c72656164792068617320612070656e64696e60008201527f6720726571756573740000000000000000000000000000000000000000000000602082015250565b60006133106029836127a6565b915061331b826132b4565b604082019050919050565b6000602082019050818103600083015261333f81613303565b9050919050565b7f496e737469747574696f6e206e6f742072656769737465726564000000000000600082015250565b600061337c601a836127a6565b915061338782613346565b602082019050919050565b600060208201905081810360008301526133ab8161336f565b9050919050565b60006133bd82612835565b91506133c883612835565b92508282019050808211156133e0576133df612eb6565b5b92915050565b7f4e487b7100000000000000000000000000000000000000000000000000000000600052603160045260246000fdfea2646970667358221220449550418ba3d0c415e6088b1097b7a8ec982a08f98e49447bb26519b92b31c464736f6c634300081c0033",
  "linkReferences": {},
  "deployedLinkReferences": {}
}